:1000000066C080C07FC07EC07DC07CC07BC07AC01F
:1000100079C078C077C076C075C074C073C072C034
:1000200071C070C06FC01824242424241800101834
:100030001410101010003C20203C04043C003C2014
:10004000203820203C002424243C202020003C0494
:10005000043C20203C001008041C242418003C24EC
:100060002010080808003C24243C24243C003C24A4
:10007000243C20203C0000001818001818003C24E4
:10008000243C040404000404040404043C003C2450
:10009000243C242424003C04040404043C003C24A8
:1000A000243C1424240000000000000000006355DC
:1000B0004941414141003C04043C04043C004224C9
:1000C0001818244281003804041820201C00112430
:1000D0001FBECFE5D4E0DEBFCDBF10E0A0E6B0E0AC
:1000E000E6ECFFE002C005900D92A838B107D9F701
:1000F00010E0A8E8B0E001C01D92AA39B107E1F70D
:10010000C0D45FC77DCFFC01AA98A9986623E1F40B
:1001100040E050E061E070E0CB01042E02C0880FA7
:10012000991F0A94E2F79C012E233F23821793071D
:1001300011F4A89A01C0A898AA9AAA984F5F5F4F95
:100140004031510549F71CC04FE050E061E070E0DC
:10015000CB01042E02C0880F991F0A94E2F79C017C
:100160002E233F238217930711F4A89A01C0A89861
:10017000AA9AAA98415050408FEF4F3F580741F735
:10018000A99A08952F923F924F925F926F927F9219
:100190008F929F92AF92BF92CF92DF92EF92FF9297
:1001A0000F931F93CF93DF93682E792E4B01161672
:1001B00017060CF074C0AA24BB24CC24DD24D394ED
:1001C0003324689431F80F2EF3E02F2EF02D4424C1
:1001D0005524EE24FF24E394B39909C080917C0058
:1001E000813029F0CC2019F410927C00CD2CB599E7
:1001F00009C080917C00833029F0CC2019F4309222
:100200007C00CD2CB19909C080917C00882329F015
:10021000CC2019F4D0927C00CD2CB29909C08091E9
:100220007C00823029F0CC2019F420927C00CD2C67
:10023000B49914C08FEF95EAAEE081509040A04091
:10024000E1F700C00000B499FECF8FEF95EAAEE071
:1002500081509040A040E1F700C00000062D172D0E
:10026000E201D8018D918D0190E080959095982FB5
:10027000882797010C2E02C0220F331F0A94E2F741
:10028000822B932B6D2D3FDF2196C830D10549F786
:100290000894A11CB11CA814B90409F09DCFDF91EA
:1002A000CF911F910F91FF90EF90DF90CF90BF9073
:1002B000AF909F908F907F906F905F904F903F9006
:1002C0002F9008952AE830E0F901E80FF11D81E050
:1002D00090E09C0102C0220F331F6A95E2F7B9013A
:1002E0008081682B60830895FC01E60FF11D81E099
:1002F00090E09C0102C0220F331F4A95E2F7A9014A
:1003000040958081482340830895AF92BF92CF9259
:10031000DF92EF92FF920F931F93CF93DF93D82F2B
:10032000C62F142F022F86E090E088D4C82ED92E35
:10033000D601CC9311961C92119712961C9312978A
:1003400013961C92139715961C921E921497D150D7
:1003500009F44AC0D1507601AA240F2EF7E0BF2E2F
:10036000F02D02C0D82F7F0186E090E067D4E82FFF
:10037000F92F023051F4C0831182173011F01F5F42
:1003800001C01A2D1283138218C0033051F4C083A8
:100390001182112311F0115001C01B2D1283138201
:1003A00017C0002351F4CC2311F0C15001C0CB2D54
:1003B00012831382C08311820BC0013049F4C7300D
:1003C00011F0CF5F01C0CA2D12831382C083118246
:1003D000D7011596FC93EE931497158214828D2FF6
:1003E0008150DD2309F0BECF8C2D9D2DDF91CF9163
:1003F0001F910F91FF90EF90DF90CF90BF90AF9043
:1004000008958F929F92AF92BF92CF92DF92EF9218
:10041000FF921F93CF93DF936B017C01C42FD52FE5
:10042000882499245401689483F8A5019401C9D3C0
:10043000162FC701B6016E5F7F4F8F4F9F4FA501EB
:100440009401BFD3EC2FFD2F462F50E0A12FB0E039
:10045000228133814217530781F420813181A21711
:10046000B30759F46BD5C8E0D0E0BE0197D3182F7D
:1004700065D5BE0193D3682F02C0369649F7109315
:10048000950060939200DF91CF911F91FF90EF90C4
:10049000DF90CF90BF90AF909F908F900895109273
:1004A0008A0010928B0010928C0010928D00109296
:1004B0008E0010928F00109290001092910008957B
:1004C0001F93CF93DF9312E0CAE8D0E0E8DF80E02B
:1004D00060E0F8DE80E061E0F5DE81E060E0F2DE21
:1004E00081E061E0EFDE80E066E0ECDE80E067E086
:1004F000E9DE81E066E0E6DE81E067E0E3DE83E0FE
:1005000063E0E0DE83E064E0DDDE84E063E0DADE29
:1005100084E064E0D7DE85E060E0D4DE85E067E07B
:10052000D1DE86E061E0CEDE86E066E0CBDE87E00D
:1005300062E0C8DE87E063E0C5DE87E064E0C2DE3B
:1005400087E065E0BFDECE0168EE73E01BDEA7DF6B
:10055000CE0168EE73E016DE115009F0B7CFDF91DF
:10056000CF911F9108950F931F93CF93DF93EB01CA
:10057000142F022F94DF209741F088816A81A2DE38
:100580000C80DD81C02D2097C1F7812F602F9ADE6E
:10059000DF91CF911F910F9108952F923F924F922B
:1005A0005F926F927F928F929F92AF92BF92CF9203
:1005B000DF92EF92FF920F931F93CF93DF93CDB70C
:1005C000DEB764970FB6F894DEBF0FBECDBF7A8B4F
:1005D000698B3A01161617060CF0A6C09C012F5F16
:1005E0003F4F388B2F87EE24FF248AE890E0582E67
:1005F000492E5B010894A108B108DE011196BA8763
:10060000A987FE013996FC87EB8788249924839477
:10061000CC24DD246894C3F8C80ED91E39842A84FA
:100620008D879E8776C0042F152FFB01808190E077
:10063000880F991F880F991F880F991F820F931F8A
:100640008A5D9F4FFC0184918D932F5F3F4F28302F
:10065000310549F7EA14FB041CF00FEF1FEF3EC011
:10066000D8018C9190E0FC01EE0FFF1FEE0FFF1FF1
:10067000EE0FFF1FEA5DFF4FDE01119684918D930F
:1006800031962B853C85A217B307C1F7E6CF2081B1
:1006900026952083EA14FB0474F40F3F61F0AB89C4
:1006A000BC898C9190E086239723009719F02068ED
:1006B000208301C0208331962B893C892F5F3F4FD7
:1006C0003C8B2B8BEC15FD0511F7852D942DB3017B
:1006D00059DD0F5F1F4F0830110571F0B401002E76
:1006E00002C0660F771F0A94E2F7A32DB22DED85A5
:1006F000FE85BC8BAB8BCBCF0894E11CF11C8F85A6
:1007000098890196988B8F87A989BA89EA16FB0682
:1007100059F0A52DB42D20E030E04F8558896F8524
:100720007889615070407FCF64960FB6F894DEBF31
:100730000FBECDBFDF91CF911F910F91FF90EF9032
:10074000DF90CF90BF90AF909F908F907F906F90F1
:100750005F904F903F902F900895CF93DF93CDB748
:10076000DEB760970FB6F894DEBF0FBECDBFDE01D7
:100770001196E0E6F0E08BE001900D928150E1F7F8
:100780008FEF91E0EAD3888BCE0101966BE070E0A9
:1007900044E650E002DF88898A30B0F188898436E7
:1007A000E0F480E18C8788892AE0622FD7D18D8799
:1007B0008889D4D19E8762E070E06F5F7F4FCE0161
:1007C0000C9648EC50E0E9DE60960FB6F894DEBF78
:1007D0000FBECDBFDF91CF91089580E18C878889CE
:1007E00024E6622FBBD18D878889B8D1892F3AE062
:1007F000632FB4D18E878889622FB0D1892F632F60
:10080000ADD19F8763E0D8CF80E18C8788898D87C1
:1008100061E0D2CFCF93DF93CDB7DEB72C970FB681
:10082000F894DEBF0FBECDBFDE011196EBE6F0E01F
:1008300088E001900D928150E1F7CE01019668E0C9
:1008400070E044E650E0A9DE809188009091890034
:100850008A30910548F184369105C8F420E1298752
:100860006AE070E087D16A878B8762E070E06F5F33
:100870007F4FCE01099648EC50E08FDE2C960FB6E4
:10088000F894DEBF0FBECDBFDF91CF91089520E178
:10089000298764E670E06ED16A876AE070E06AD109
:1008A0006B878C8763E0E2CF90E199878A8761E06C
:1008B000DDCFCF93DF93CDB7DEB729970FB6F8948E
:1008C000DEBF0FBECDBFDE011196E3E7F0E088E0AA
:1008D00001900D928150E1F78FEF91E03ED389872F
:1008E0008985609188007091890090E0861797074C
:1008F00018F48FEF91E039D30F2EF3E0DF2EF02DB7
:100900000AE810E00F2EF9E0EF2EFF24F02DEC0E98
:10091000FD1E10C081918D93EE15FF05D9F7C8011A
:1009200068EE73E02FDCBBDDC80168EE73E02ADC03
:10093000DA9421F0FE013196D801ECCF6BDF0DDFA8
:10094000FDCFAF92BF92CF92DF92EF92FF920F93C3
:100950001F93CF93DF938B0169017A01FB016081C3
:100960007281882329F4662309F4A3DF615014C03F
:10097000813029F4673009F49CDF6F5F0DC082304D
:1009800029F4772309F495DF715006C0833021F4F0
:10099000773009F48EDF7F5FA0917B00AA23B1F04E
:1009A000BA2FF801262F30E0472F50E08081918147
:1009B0008217930731F4828193818417950709F494
:1009C00078DF0480F581E02DB15081F780919500AA
:1009D000681791F480919200781781F480918800D3
:1009E0009091890005969093890080938800AF5F6D
:1009F000A0937B0041E003C040E001C040E0F8016B
:100A0000808192816083118272831382C481D58137
:100A1000209719F42BC0922F832F38812A81888345
:100A200019829A831B820C80DD81C02D8C819D816F
:100A30000097D1F44130C1F4B880AA80388319827C
:100A40002A831B8286E090E0F9D0E82FF92FB0824C
:100A50001182A282138215821482FD83EC83C70166
:100A6000B601A801CEDC02C02097A9F6DF91CF9194
:100A70001F910F91FF90EF90DF90CF90BF90AF90BC
:100A80000895CF93DF930F92CDB7DEB787E084BB95
:100A900015BA17BA8FEF88BB11BA82BB8FEF91E0FE
:100AA0005CD2898389818F3F21F48FEF91E064EBE1
:100AB0005CD206DD80917B0064E044E020917C0004
:100AC00024DCAC01909394008093930060E070E08C
:100AD000CB0197DCCC24DD247601C3940AE810E036
:100AE0000F2EF2EEAF2EF4E0BF2EF02D442455244D
:100AF000320102C073016201609193007091940011
:100B0000C80140919500209192002DDD80918800D0
:100B1000909189009C01220F331F220F331F820FF7
:100B2000931FB501681B790BC8012CDB6091930002
:100B30007091940080917C00A701960102DF0894D7
:100B4000C11CD11CE11CF11C8EEFC8168FEFD8061A
:100B50008FEFE8068FEFF80679F6CCCF991B79E096
:100B600004C0991F961708F0961B881F7A95C9F73D
:100B700080950895AA1BBB1B51E107C0AA1FBB1F8C
:100B8000A617B70710F0A61BB70B881F991F5A9519
:100B9000A9F780959095BC01CD01089597FB092E8A
:100BA00007260AD077FD04D0E5DF06D000201AF42E
:100BB000709561957F4F0895F6F7909581959F4FB9
:100BC000089597FB092E05260ED057FD04D014D0AA
:100BD0000AD0001C38F450954095309521953F4F30
:100BE0004F4F5F4F0895F6F79095809570956195FA
:100BF0007F4F8F4F9F4F0895A1E21A2EAA1BBB1B58
:100C0000FD010DC0AA1FBB1FEE1FFF1FA217B307D8
:100C1000E407F50720F0A21BB30BE40BF50B661FEE
:100C2000771F881F991F1A9469F7609570958095B2
:100C300090959B01AC01BD01CF010895CF93DF9347
:100C4000AC018230910510F442E050E0E091980050
:100C5000F091990020E030E0A0E0B0E024C0808175
:100C6000918184179507D0F08417950771F48281DC
:100C70009381109729F013969C938E9312972CC012
:100C8000909399008093980027C02115310519F0A1
:100C90008217930718F49C01BD01EF0192818381B3
:100CA000DF01E92FF82F3097D1F621153105F9F042
:100CB000C901841B950B8430910580F48A819B8146
:100CC0006115710521F0FB019383828304C0909329
:100CD000990080939800FE01329642C0FE01E80F11
:100CE000F91F4193519302979983888339C080916A
:100CF000960090919700009741F480917F00909129
:100D00008000909397008093960020917D00309111
:100D10007E002115310541F42DB73EB78091810049
:100D200090918200281B390BE0919600F09197007A
:100D3000E217F30798F42E1B3F0B2417350770F0CA
:100D4000CA0102962817390748F08E0F9F1F90930B
:100D50009700809396004193519302C0E0E0F0E049
:100D6000CF01DF91CF9108950F931F93CF93DF931E
:100D70009C01009709F48CC0DC01129713961C9219
:100D80001E921297609198007091990061157105FB
:100D900089F48D919C911197820F931F2091960059
:100DA000309197002817390769F5B0939700A09301
:100DB00096006EC0FB0140E050E001C0FC01EA1764
:100DC000FB0730F482819381AF010097B9F71FC010
:100DD000E9012297FB83EA8308811981C901800F09
:100DE000911F8E179F0759F480819181800F911F69
:100DF000029699838883828193819B838A8341159C
:100E0000510529F4B0939900A093980041C0FA01CC
:100E1000B383A283C191D191EC0FFD1FAE17BF0721
:100E200081F4F901929182918C0F9D1F0296DA0153
:100E300011969C938E938281938113969C938E93AB
:100E40001297E0E0F0E002C0FB01BC01DB0112966A
:100E50008D919C9113970097B9F7CB0102962D9134
:100E60003C911197820F931F20919600309197002B
:100E70002817390769F4309729F4109299001092D5
:100E8000980002C0138212827093970060939600BC
:100E9000DF91CF911F910F9108958F929F92AF9202
:100EA000BF92CF92DF92EF92FF92CF93DF93EC014C
:100EB00088819981AA81BB810097A105B10521F4A0
:100EC00084E299EDABE5B7E0BC01CD012DE133EF54
:100ED00041E050E076DE49015A0127EA31E440E082
:100EE00050E050D06B017C01C501B4012CEE34EF11
:100EF0004FEF5FEF47D0DC01CB01C80ED91EEA1ED1
:100F0000FB1EF7FE08C08FEF9FEFAFEFBFE7C80EE5
:100F1000D91EEA1EFB1EC882D982EA82FB82C60164
:100F20009F77DF91CF91FF90EF90DF90CF90BF90B0
:100F3000AF909F908F900895B0DF089583E890E080
:100F4000ACDF0895A0E0B0E080938300909384002C
:100F5000A0938500B09386000895E199FECF9FBBD2
:100F60008EBBE09A99278DB30895262FE199FECF85
:100F70009FBB8EBB2DBB0FB6F894E29AE19A0FBED1
:100F800001960895629FD001739FF001829FE00D4A
:100F9000F11D649FE00DF11D929FF00D839FF00DF8
:100FA000749FF00D659FF00D9927729FB00DE11DA4
:100FB000F91F639FB00DE11DF91FBD01CF01112481
:060FC0000895F894FFCF34
:100FC60010110D1310140E000F120A100B0C0D0E3B
:100FD6000D0F0A8142241818244281040200009A47
:080FE6000020000100000000E2
:00000001FF
